:020000040800F2
:100000001811002041370008C5010008C701000889
:1000100000000000000000000000000000000000E0
:10002000000000000000000000000000C9010008FE
:100030000000000000000000CB010008CD01000816
:100040005337000853370008533700085337000868
:1000500053370008771E000853370008B31E000806
:100060005337000853370008533700085337000848
:100070005337000853370008533700085337000838
:1000800053370008533700080000000053370008BA
:1000900053370008CF0100085337000853370008D2
:1000A0005337000853370008533700085337000808
:1000B000533700080000000053370008000000001C
:1000C00000F002F800F03EF80CA030C80838241800
:1000D0002D18A246671EAB4654465D46AC4201D180
:1000E00000F030F87E460F3E0FCCB6460126334274
:1000F00000D0FB1AA246AB463343184738580000DD
:1001000058580000103A02D378C878C1FAD852077C
:1001100001D330C830C101D504680C6070470000BD
:100120000023002400250026103A01D378C1FBD813
:10013000520700D330C100D50B6070471FB51FBDFB
:1001400010B510BD05F0CBFA1146FFF7F7FF00F030
:1001500025F805F0E3FA03B4FFF7F2FF03BC05F05E
:10016000E9FA000070B505460C46164602E00FCCD1
:100170000FC5103E102EFAD2082E02D303CC03C5B1
:10018000083E042E07D301CC01C5361F03E02178B9
:100190002970641C6D1C761EF9D270BD10B502F07A
:1001A00089FC03F0C3FA02F009F901F060FF0022B4
:1001B0000121034803F083FA03F066FA002010BD22
:1001C0002D0300087047FEE770477047704710B571
:1001D000064C0121204604F0BFFB002805D003F0A7
:1001E000A0FA0121204604F0C3FB10BD00440140E9
:1001F00010B5474801680122114301604168454A32
:10020000114041600168444A1140016001680122C7
:1002100092049143016041683F221204914341607E
:10022000C16A09090901C162016BFF22543291437D
:100230000163416B4908490041630021816000F07E
:100240002EF810BD70B5324D69680C20014033485E
:10025000334C03D0042901D0082901D0206014E0D8
:100260006A686968012392021B04160F1940B61CC4
:10027000002907D0E96A0907090F491C05F07FF931
:100280007043EBE727484643266068682449000628
:10029000000F091D085C2168C140216070BD38B5A0
:1002A00000201B4C00902068012109048843206035
:1002B0001D480168102211430160016801221143A9
:1002C0000160606860606068606060683F21090488
:1002D0008843606060680521C904084360600520A8
:1002E00003F0CCFB20680121090608432060206848
:1002F0008001FCD560688008800060606068022131
:100300000843606060680007800F0228FAD138BD9A
:10031000001002400CB8FFF8FFFFF6FE00127A0052
:100320000000002000093D000020024010B503F04D
:100330000AF803F0E1F8FF2205322649264802F0C8
:1003400001FC4821254802F099FC2448583802F065
:100350004CFC08220121224803F0B1F909220121B5
:10036000204803F0ACF9022201211F4803F0A7F94D
:10037000042201211D4803F0A2F9062201211C4894
:1003800003F09DF90B2201211A4803F098F9052288
:100390000121194803F093F901221146174803F08F
:1003A0008EF907220121164803F089F90322012161
:1003B000144803F084F90A220121134803F07FF95D
:1003C000002003F092F910BD10B532210E2003F089
:1003D00095F910BD270700208C040020440400205C
:1003E0002B070008711C0008E1230008BD0E00085F
:1003F000A71A0008E30F00083F190008BB17000800
:100400009D1500084B100008EF110008FB49012062
:1004100008707047F949002008707047F7480121BB
:1004200041718171C1710172417281720021417506
:100430008175C175C187017641768176C176017774
:1004400041777047ED480021417581757047EB4950
:10045000002380318B62CB62012280394A718A711C
:100460004A758A750B764B76032807D0062808D084
:10047000092802D10320C87608777047CA760A7720
:1004800070470220F7E770B5DD4C0646012189026E
:10049000204603F0F8F90121C902204603F0F3F9E0
:1004A0000021084602F0E5FD0021012002F0E1FDF7
:1004B000D248007D012804D0022805D0032806D0A8
:1004C00009E00021022004E00021032001E00021D6
:1004D000042002F0CEFDFF25F535284602F0E3FAB0
:1004E00000241FE00121022002F0C3FD01210320AE
:1004F00002F0BFFD0121042002F0BBFD284602F0FE
:10050000D2FA0021022002F0B4FD0021032002F003
:10051000B0FD0021042002F0ACFD284602F0C3FA31
:10052000641CE4B2B442DDD370BD70B50022642116
:10053000012002F0E7FF00226421022002F0E2FF26
:1005400000226421032002F0DDFF00226421042048
:1005500002F0D8FF7D26760100223146052002F008
:10056000D1FF0021084602F084FD0024F51001218E
:10057000022002F07EFD0121032002F07AFD01211C
:10058000042002F076FD32223146052002F0BAFF47
:10059000284602F0B8FA0021022002F06AFD00218C
:1005A000032002F066FD0021042002F062FD00221B
:1005B0003146052002F0A6FF284602F0A4FA641C8A
:1005C000E4B2032CD3D370BD70B58D4C0646012127
:1005D0008902204603F057F90121C902204603F0A1
:1005E00052F90021084602F044FD8448007D0128AC
:1005F00004D0022805D0032806D009E000210220FB
:1006000004E00021032001E00021042002F031FD7C
:10061000FF25F535284602F046FA00240FE00121B7
:10062000084602F026FD284602F03DFA002101208E
:1006300002F01FFD284602F036FA641CE4B2B44210
:10064000EDD370BD10B500224378012104E0445C75
:10065000A218491C92B289B29942F8D3110AC15426
:10066000C018427010BDF8B5664D674802F0D8FA60
:10067000624C002786B2203453E0634802F0C6FA89
:10068000E17A002942D0217B00292FD0617B685478
:10069000607B401C6073A07B401E0006000EA073B0
:1006A0003DD100226978012003E02B5C9A1892B2B8
:1006B000401C8842F9DB685C03026818407818180F
:1006C00090420BD1FF224F495F32881804F0F6FEAA
:1006D0004E4802F093F9022002F015FAE772FF216A
:1006E00027735F31474804F048FF18E0FF22411E9E
:1006F0005D32914208D2434A617B5054A07301207D
:100700002073491C61730AE0E77208E0FF2806D1F4
:100710003C4908700121E17227736173A773761E4B
:10072000B6B2002EA9D10120F8BD10B5FF24CCB07F
:100730002D342146684604F020FF35480078002813
:100740000AD1314822466946A03002F031FA010050
:1007500002D0684602F00BFB1C21082002F0CEFFFD
:100760004CB010BD2549012088730020803188617C
:1007700070472249012000230A4648718032936263
:100780008871D362C87113630872536348729363AC
:10079000887253620874D360C8721361087313625D
:1007A0004873D36188739361C8735361704770B5A0
:1007B000124A0B00803204F0C4FF0F13090E2F33CE
:1007C000383D134213474C51565B13000B49491DEA
:1007D0009160A33103E00949891D9160A631D1637D
:1007E00093680C491D7800240968012D45D00E1826
:1007F00001258E4245D2002848D04CE0140000204C
:100800000004004830010020EC0300208E0200208C
:10081000ED0000200C010020FE499160A931DEE7C7
:10082000FC49491C9160AC31D9E7FA49891C9160B7
:10083000AF31D4E7F749C91C91609A31CFE7F54948
:10084000093191607C31CAE7F249091D9160853117
:10085000C5E7F049491D91609431D163ED49891D87
:1008600091608F31D163EB49C91D91608A31D163A9
:10087000E849083191608531B1E7D06B01601C70A7
:1008800009E0D66B3668891B814204D31D70D06B9A
:100890000460012070BD002070BDDE4AD21F1146E9
:1008A0004031032806D0012811D1507F04280ED1F1
:1008B0000C200BE0507F002805D0012805D002282D
:1008C00005D1092002E0032000E0062008807047DF
:1008D000F3B58DB000200A90032006900420039009
:1008E000002009900520089006200290072007901C
:1008F0000E46C8480D99082502247930012904D0F4
:10090000022909D003290ED114E0C2490E31016435
:10091000C91C4164C91C05E0BE490F310164C91CF2
:100920004164C91C8164BB487930006C007801289F
:1009300017D041E002210A9104210691052103917B
:1009400006210991072108910821029109210791A7
:10095000B0490A2510310164C91C03244164C91C33
:10096000E0E7AC4F3078FF1F797F401E884217DAEE
:1009700000226421012002F0C5FD00226421022032
:1009800002F0C0FD00226421032002F0BBFD07201D
:100990007875B875F8750020F876387778770BE0B9
:1009A000387800280FD000226421032002F0AAFD2D
:1009B0000020B877FFF732FD96487930006C007858
:1009C000022811D035E0934F06997937B86C491C4D
:1009D000007868438019425C611C415C0D9802F00C
:1009E00091FD396C022008700D98032828D0894F9A
:1009F0007937B86C0078684381190398401C085C0B
:100A00007D21C90048430D99FFF7D1FE002810D081
:100A1000796C0878401C0870396C05200870B86C37
:100A20000022007868438119601C095C0D9802F06F
:100A300069FD784F7937386C007804285FD06BE017
:100A4000902002F0B7FA734F7937B96C0B9109789F
:100A500069438A190A990492491C535C79686E4A61
:100A60008C464B430021515E5A18824236D862466A
:100A7000B4235A435118814212D9396C03200870AB
:100A80000B99097869438A19611C515C002202F0B4
:100A900039FD394601208039C87100203863C8E724
:100AA000396C0420087000226421012002F02AFD24
:100AB00000226421022002F025FD0022642103208F
:100AC00002F020FD554F01218902384602F0DBFE7D
:100AD0000121C902384602F0D6FEAAE7039804991C
:100AE000401C085C7D21C90048430D99FFF75FFE5B
:100AF00000289ED0786C0178491C01708CE745492C
:100B00000020C91F8877FFF789FC0520FFF7BBFC91
:100B100001F054FC01F0ABFA3E483E4F7930006CD6
:100B200039370078032849D138464030806C007846
:100B3000684381190998401C085C7D21C90048431D
:100B40000D99FFF734FE00280CD03888401C3880FF
:100B500038464030416C0A78521C0A70006C0521FE
:100B6000017021E0902002F025FA2A49B42279315F
:100B7000496800235143284AD35EC91888421DD3CF
:100B8000244904207931096C002208706421012075
:100B900002F0B8FC00226421022002F0B3FC002223
:100BA0006421032002F0AEFC012189021B4802F0FF
:100BB0006AFE0121C902194802F065FE1548793024
:100BC000006C0078052838D112487930416C806C6F
:100BD0000A780078684381190898401C085C8242B2
:100BE0002CD10D99032921D10A4919318872FFF7B7
:100BF00054FE3888032805D0062803D0092801D0E0
:100C00000C2813D100226421012002F07BFC002279
:100C1000642105E01B0000200801002000040048BA
:100C2000022002F06FFC3888FFF70CFCFE4806211A
:100C3000026C1170406C0021017049E00D9803288E
:100C4000029818D0401C085C7D21C90048430D99CA
:100C5000FFF7ADFD00283BD0F34F0699B86C491C57
:100C60000078641C68438019425C015D0D9802F0B5
:100C700049FC022099E0401C085C7D21C9004843E2
:100C80000D99FFF794FD002818D03888042803D068
:100C9000072801D00A2801D1FFF7D9FBE24900203B
:100CA00080390870E14F01218902384602F0EDFDDC
:100CB0000121C902384602F0E8FDCDE70121890291
:100CC000DA4802F0E0FD0121C902D84802F0DBFD5C
:100CD000D548016C0978062969D10D9903292ED0D0
:100CE000398803294ED006294CD009294AD00C292D
:100CF00048D00746806C0078684381190798401CEB
:100D0000085C7D21C90048430D99FFF750FD00287C
:100D10004DD0C5490820803988770020796C641C43
:100D20000870B86C0022007868438019015D0D9846
:100D300002F0E8FBB96C0878401C087034E0BA484F
:100D4000806C0078684381190798401C085C7D21FD
:100D5000C90048430D99FFF72AFD002827D0B24F5C
:100D60000020803F387001218902B04802F08DFDDB
:100D70000121C902AD4802F088FD0820B8770020A3
:100D80008037CBE7A84A0821803A91770746406C24
:100D900000210170B86C641C00780022684380193F
:100DA000015D0D9802F0AEFB0120396C08700FB0A8
:100DB000F0BD10B500229E4BFF21D9319C5C8454BC
:100DC000521C8A42FADB014676229A4801F0C9FB9E
:100DD00010BD02780021521EFF2A38D20022491C81
:100DE00089B243189B78491C89B2012B2FD80B4636
:100DF000603B3C2B05D99C3B3C2B02D99C3B3C2BBC
:100E000001D8491C89B243189B78491C89B2002B30
:100E10001DD043189B785B1F602B18D2491C89B2E8
:100E200043189B78491C89B2002B10D00B46603BBD
:100E30003C2B05D99C3B3C2B02D99C3B3C2B01D83D
:100E4000491C89B243189B785B1EFA2B00D3B0E78C
:100E5000C91C521C89B2362AC1DB7047F7B5002085
:100E600001990124491C844603468E46012A04D078
:100E7000022A02D0032A02D002E0082000E00A2061
:100E800005465D437146695C012910D1002108E0E7
:100E9000019E7618AF5D009E3755641C491CE4B274
:100EA000C9B28142F4D36146491CC9B28C465B1C6D
:100EB000062BDBDB009960460870FEBDF8B55A4C86
:100EC0000121603C22782546C903584800260127A5
:100ED000203D002A43D002F0C4FC00284AD1E07B28
:100EE000052872D0401CE0730AE0207C052805D15B
:100EF000E97F002902D1E178002969D0401C2074E3
:100F00001421042002F0FAFBF8BD0220287500210C
:100F100002F0AFF80121032013E0022802D00328D9
:100F200011D107E003202875002102F0A2F8012169
:100F3000042006E02F750021042002F09AF8012118
:100F4000022002F096F8FFF769FAAE7700226421DA
:100F5000012002F0D7FA0022642102201DE0364B66
:100F6000A2781B781A43EB7F1A43C9D102F079FCAF
:100F7000002804D0E673687C0128B6D0C0E70E21B3
:100F80002E48FFF714FC0028A9D0EF772771FFF750
:100F900045FAAE7700226421012002F0B3FA002264
:100FA0006421022002F0AEFA00226421032002F044
:100FB000A9FA00226421042002F0A4FA002264218C
:100FC000052002F09FFA9BE7FFE76F74E67397E74F
:100FD0001548EF73466126746E74287D01289CD1F4
:100FE00093E7F8B5104D803D287801281BD1860283
:100FF0000E4C3146204602F046FC7700394620462A
:1010000002F041FC7D2008214001FFF7D0FB0028C1
:1010100009D03146204602F038FC3946204602F01D
:1010200034FC002028700BE09400002000040048ED
:101030005C57000800780008ED00002088130000CD
:1010400032210B2002F05AFBF8BDF8B5FD4E042703
:1010500030780125FC4C002835D100226421012084
:1010600002F050FA00226421022002F04BFA002222
:101070006421032002F046FA00226421042002F0D9
:1010800041FA7D2100224901052002F03BFA32207D
:1010900001F039FD09200121C00602F0E2FB012820
:1010A00001D0357012E037706570E848A57001789E
:1010B00000291CD10570E64900200870E24920395A
:1010C0008877FFF7ABF93078012803D101F076F982
:1010D00000F0CDFF3078022803D101F06FF900F065
:1010E000C6FF6078012802D004282DD030E0092600
:1010F000F6062021304602F0B4FB002805D110216D
:10110000304602F0AEFB012806D02021304602F026
:10111000A8FB012803D008E0022060701BE010212A
:10112000304602F09EFB002806D02021304602F017
:1011300098FB012803D006E00320607047E01021EF
:10114000304602F08EFB677001F038F900F08FFF37
:101150006078022838D10021012001F08AFF0021A7
:10116000022001F086FF0021032001F082FF002110
:10117000042001F07EFF617C7D20C000002919D091
:101180000C21FFF714FB00281ED00121002001F0E4
:1011900070FF002009256074ED062021284602F02A
:1011A00060FB012810D11021284602F05AFB0028CC
:1011B000C2D009E00C21FFF7FAFA002804D0002180
:1011C000084601F056FF65746078032803D10121B9
:1011D000002001F04EFF1421032002F08FFAF8BD29
:1011E000884201D9401A00E0081A80B27047F8B569
:1011F000954C01252079974F002601282FD12046B4
:101200002038C1780079014359D1022001F031FF23
:101210000021032001F02DFF0021042001F029FF0F
:1012200000226421012002F06DF9002264210220D5
:1012300002F068F900226421032002F063F9002221
:101240006421042002F05EF97D210022490105207D
:1012500002F058F9607D0A2807D0401C607520799B
:10126000022810D0032823D029E0022066752071BF
:1012700041026571384602F006FB0121C902384679
:1012800002F001FBEBE7E570E07D14217D22414394
:101290005201914217D10121E6758902384602F0C8
:1012A000F4FA0121C902384602F0EFFA0320207156
:1012B0000420207146226421032002F023F9E07803
:1012C000012802D031E0401CE0756079012808D186
:1012D000A07D282809D0401CA0750121022001F022
:1012E000C8FE6079022805D00DE00220A675607165
:1012F0000021F3E7A07D282809D0401CA07501211A
:10130000032001F0B6FE6079032805D00DE003202C
:10131000A67560710021F3E7A07D28280BD0401C42
:10132000A0750121042001F0A4FE474D207920354D
:10133000042804D033E0A67565710021F2E7688BBC
:1013400014217D2241439201914208D1002264215F
:10135000032002F0D7F8052020716E8322E0401CA4
:1013600080B26883052803D1902001F023FEE88332
:10137000688B0146FF39903911D1902001F01AFE97
:101380002884E98BFFF72CFF962808D200226421DD
:10139000032002F0B7F8072020716E837FE02079E8
:1013A000052839D1A88B14212B4A414391420DD1F4
:1013B0000121AE838902384602F065FA0121C90293
:1013C000384602F060FA0620207128E0401C80B206
:1013D000A883012803D1902001F0ECFD6884A88B3C
:1013E0001E49884218D1902001F0E4FDA8840146EE
:1013F000688CFFF7F5FEFF212D3188420CD90720BC
:1014000020710121AE838902384602F03CFA0121A5
:10141000C902384602F037FA207906282ED1E07D3D
:1014200014210F4A414391421CD1012189023846BF
:1014300002F02BFA0121C902384602F026FAE675BD
:101440001CE00000EC00002034000020EE00002032
:10145000ED0000200004004830750000D2050000B7
:1014600088130000401CC0B2E075012803D1902011
:1014700001F0A0FDE884E07DC82803D0207907288A
:101480000DD049E0902001F095FD28850146E88CBB
:10149000FFF7A6FE642820D207202071E675002100
:1014A000E670084601F0E5FD0021012001F0E1FDB4
:1014B000617E052914D0A07E142203465343FF22E7
:1014C0002D3293422CD1E07E1423434393420FD11B
:1014D000491C6176A676E6761EE0082020712FE092
:1014E000FE486676C67700F069FF00F0C0FD13E0A5
:1014F000401CE0760121022001F0BBFD0121032008
:1015000001F0B7FD0121042001F0B3FD50227D213F
:101510004901052001F0F6FF2079082810D038E0B5
:10152000401CA0760021022001F0A3FD0021032031
:1015300001F09FFD0021042001F09BFD0022E6E761
:10154000E670207F1421E64A4143914213D1E348DB
:101550000021C6772677022001F08BFD00210320B1
:1015600001F087FD0021042001F083FD00F026FF3B
:1015700000F07DFD0DE0401C20770121022001F0EC
:1015800078FD0121032001F074FD0121042001F008
:1015900070FD14210A2002F0B1F8F8BDF8B5CF4C67
:1015A000CE4D2034A0792E464036002838D1E87838
:1015B000297908437ED0308B042835D0401C3083F5
:1015C00000226421012001F09DFF002264210220FD
:1015D00001F098FF00226421032001F093FF002214
:1015E0006421042001F08EFF7D277F01002239460F
:1015F000052001F087FF00223946052001F082FF17
:101600000021084601F035FD0021022001F031FDE6
:101610000021032001F02DFD0021042001F029FD0F
:10162000A07901281ED04EE000203083207A0228C5
:1016300015D00121022001F01CFD0121032001F041
:1016400018FD0121042001F014FD01277D21A7715F
:1016500032224901052001F055FFE771E0E7012141
:101660000020F0E7207A012802D002280AD104E005
:101670009A484630E867001F03E098484E30E86714
:10168000001F6867E86F0A210088FFF790F80028BC
:1016900019D0207A022813D00021022001F0E9FCA1
:1016A0000021032001F0E5FC0021042001F0E1FC11
:1016B000022000E02BE0A071B08A401CB08205E05F
:1016C00000210846F2E7A079022820D1686FB18A8C
:1016D0000088884203D10020B082032016E0E86F22
:1016E0000A210088FFF763F8002810D0207A02282A
:1016F00013D00121022001F0BCFC0121032001F0E4
:10170000B8FC0121042001F0B4FC0120A071734F4A
:10171000E0798037012803D025E001210020F2E79D
:10172000207A012802D002280AD104E06B48483010
:101730003860001F03E0694850303860001FA86718
:1017400038680B210088FFF732F800280BD07D2184
:1017500000224901052001F0D5FE0220E071F08A47
:10176000401CF08202E0E079022817D1A86FF18ACC
:101770000088884203D10020F08203200DE0386801
:101780000B210088FFF713F8002807D07D213222B3
:101790004901052001F0B6FE0120E071A07903287F
:1017A00006D1E079032803D100F008FE00F05FFCC9
:1017B0003221072001F0A2FFF8BDF8B54948474C97
:1017C0000288408820340090A07800282CD1464818
:1017D00000250078414E012700282AD0217E20468E
:1017E0006030142947D0491C2176C16C8918C16426
:1017F0003E490098884217D2A07C01287ED0002262
:101800006421012001F07EFE00226421022001F00B
:1018100079FE00226421032001F074FE7575B57510
:10182000F575A07C401CA0743221012001F066FFF8
:10183000F8BD2F4882422DD2B570002264210120CC
:1018400001F060FE00226421022001F05BFE002214
:101850006421032001F056FE00226421042001F0DF
:1018600051FE7D2100224901052001F04BFE05209B
:10187000FEF7AAFE48E0194814218030C06C03F03E
:101880007EFE16498031C864194980B289392576AF
:10189000884201D3B770ABE7B57000226421012004
:1018A00001F030FE00226421022001F02BFE002214
:1018B0006421032001F026FE00226421042001F0AF
:1018C00021FE7D2100224901052001F01BFE05209B
:1018D000FEF77AFE07480849006810E0140000206F
:1018E0008813000004010020EE000020B603000071
:1018F000550900000C010020240100200BE0886045
:101900000322E34800F02DFEE248077000F056FD88
:1019100000F0ADFB6CE7A5740520FEF7B4FDDD48D3
:10192000077000F04BFD00F0A2FB7DE70021DA48D4
:101930000122C16601678274C17441707047F8B5B5
:10194000D54E00252036B078D34C002801D0E5666E
:1019500066E0D0480078002863D1707A012700281B
:1019600057D0A07C002817D0E07C002814D0F07C51
:10197000192824D050226421012001F0C3FD5022F7
:101980006421022001F0BEFD50226421022001F0FA
:10199000B9FDF07C401CF07401214903BF4801F0FF
:1019A00060FF00281ED0E566206F1421BC4A414329
:1019B000914240D12567E07F002824D031E0F574C2
:1019C000A57400226421012001F09CFD0022642105
:1019D000022001F097FD00226421032001F092FD16
:1019E0003770D9E7E06E14217D2241431201914204
:1019F00006D1E5662567A74867700570E77410E0B3
:101A0000401CE0660DE06570E770A2483772077011
:101A100007E001214903A14801F023FF012805D077
:101A200025671421052001F069FEF8BD206F1421FF
:101A30004143C82902D0401C2067F2E700226421FC
:101A40000120256701F05EFD00226421022001F0E3
:101A500059FD00226421032001F054FD0121890277
:101A60008E4801F010FF0121C9028C4801F00BFFE4
:101A70003570A577FEF7D2FC7772D2E770B5864D48
:101A800000248035874E01E00A2C09D0304600F052
:101A90008FFE641C68600A38E4B25B28F4D270BD23
:101AA0001420686070BDF0B57B4FF7B020373878F0
:101AB000012869D1B8780028FBD1774CE07F002855
:101AC000F7D120780028F4D1A07F00281AD17625FC
:101AD000AE003146684603F050FD2A46694672481A
:101AE00000F068FE324669467048FEF73BFB6F48DF
:101AF000FFF76FF90620A077FFF7C0FF002078728C
:101B0000FFF714FFA07F694E06281AD17078684944
:101B100048430621FEF74BFE002812D030785F4D77
:101B2000401E38750720A07701218902284601F060
:101B3000ACFE0121C902284601F0A7FE5D4801F074
:101B400068FBA07F02281FD00125012815D1387D10
:101B5000002804D00721A177401E387515E0002029
:101B6000A077554803220168491C01605349096860
:101B700041600146464800F0F4FCA07F072804D0ED
:101B8000042835D0082852D068E03D214C4803F0A5
:101B9000F4FC4B483D213D3003F0EDFC48483D212D
:101BA0007A3003F0E8FC207D012804D0022806D01A
:101BB00003280AD132E09C22B11C684603E03B496D
:101BC0009C229E31684603F079FC012269463C481C
:101BD000FFF744F93A4802223D300CA9FFF73EF9DD
:101BE000374803227A3018A9FFF738F90420A07784
:101BF000902001F0DFF9284900234031488240312C
:101C000049688A0089182B4AD35EC91881420AD3D1
:101C10000820A0776575A575E57511E028499C2217
:101C20009E396846CFE725700420A07716E0607DD6
:101C3000072805D1A07D072802D1E07D072813D011
:101C40001F490120FEF744FE1D4902203D31FEF7E9
:101C50003FFE1B4903207A31FEF73AFE0A21062097
:101C600001F04CFD77B0F0BDA577FEF7D7FBF5E7A7
:101C700010B508480078002805D10C48AC3800F0B1
:101C8000D6FFFEF7F0FC6421092001F037FD10BDFE
:101C900000800008ED00002014000020000400482F
:101CA000204E00000068000800780008980400201A
:101CB0008813000008010020240100200C010020EE
:101CC00070060020F0B5232085B00121400401F00A
:101CD000A3FF0121480401F0B1FF0121084601F0F2
:101CE000A4FFFF2601360025684602960573C573DA
:101CF00002274773092002A9C00601F064FD0124F0
:101D0000092002A9C006029401F05DFD082100200F
:101D100003F0B0FB6846009605710C214171847197
:101D200003F020FB0021084603F0A4FB10216846C5
:101D30000094417103F016FB072168460174447456
:101D4000847404A801F0CCFF68464774052101742F
:101D500004A801F0C5FF05B0F0BD70B50926F60670
:101D60000121304601F07DFD012806D001213046D9
:101D700001F077FD00283ED079E0002264210120A7
:101D800001F0C0FB00226421022001F0BBFB002215
:101D90006421032001F0B6FB00226421042001F03D
:101DA000B1FB00226421052001F0ACFB00210220E0
:101DB00001F05FF90021032001F05BF9002104200C
:101DC00001F057F90021084601F053F900252C468F
:101DD000052000F098FE0121304601F042FD012867
:101DE00001D16D1CEDB2641CE4B2052CF0D3052DBD
:101DF0003DD1002070BD00226421012001F082FB52
:101E000000226421022001F07DFB002264210320D6
:101E100001F078FB00226421042001F073FB002212
:101E20006421052001F06EFB0021022001F021F960
:101E30000021032001F01DF90021042001F019F90F
:101E40000021084601F015F900252C46052000F078
:101E50005AFE0121304601F004FD002801D16D1C1D
:101E6000EDB2641CE4B2052CF0D3052D01D00320A3
:101E700070BD022070BD70B5012003F0BDFA0028CE
:101E800013D00925ED060121284601F0EAFCFE4C9D
:101E9000012806D00121284601F0E3FC002802D0E9
:101EA00003E0002000E002202070012003F0A1FAEE
:101EB00070BD10B5FF240134204603F09DFA0028C0
:101EC00009D0F1490878032805D1F04800780028A6
:101ED00001D10220C870204603F08BFA10BD70B506
:101EE000EB4800240470EB4801250480EA480570A3
:101EF000FEF73FFCFEF792FAE848EA490470E8482A
:101F00000470E14884704570C5700C700321017045
:101F1000E5480470E5480470E5480470E54804703D
:101F2000E5480470E5480460E5480460E54805704C
:101F3000E5480570E5480570E5480570E548057019
:101F4000E5480480E5480480E5480480E5480570DC
:101F5000E5480470E5480460E5480460E54804602D
:101F6000E5480460E5480460E5480460E54804602D
:101F7000E5480460E5480460E5480460E54804601D
:101F8000E5480570E5480460E5480480E5480470CC
:101F9000E5480470BD480470E4480470E4480470E7
:101FA000E4480470E4480470E4480470E4480470B1
:101FB000E4480470E4480470E4480470E4480470A1
:101FC000E4480470E4480470E4480470E448047091
:101FD000E4480470E4480470E4480460E448048081
:101FE000E4480480E4480480E4480480E448048031
:101FF000E4480480E4480470E4480470E448047051
:10200000E448047070BDF8B50021084601F031F8CD
:102010000021012001F02DF80021022001F029F813
:102020000021032001F025F80021042001F021F80F
:102030000126D94DB6023146284601F024FC710034
:10204000284601F020FC00247D27FF00384600F0E0
:102050005AFD641CE4B2022CF8D33146284601F044
:1020600014FC0121C902284601F00FFCF8BD10B58F
:10207000CA490020086000F01DFD01F057FBFEF783
:10208000B7F8FEF753F910BDF0B52320A3B0012136
:10209000400401F0C1FD7C20009003256846457195
:1020A0000126067100248471C6716946BA4801F0A0
:1020B0008AFB7C21B84801F0E6FB022718A81C9790
:1020C0000575C47509201CA9C00601F07CFB18A881
:1020D0001E960477C4771EA9AF4801F074FB002157
:1020E000AF4802F056FD0021AE4803F0F4F800219D
:1020F000AC4803F044F8AA480021503002F049FDF2
:10210000A74800213C3002F044FD0021A64801F020
:10211000B2FE0C200E9008A845770477C7770920F7
:102120000EA9C00601F04FFB680202906846457395
:1021300006738473C673092002A9C00601F043FB2D
:1021400009206902C00601F09EFB30030490684636
:10215000457506758475C675092004A9C00601F089
:1021600032FB09203103C00601F08DFBF00306901D
:102170006846457706778477C777092006A9C006A1
:1021800001F021FB0920F103C00601F07EFB2320B2
:102190008001089008A8457106718471C7710146D5
:1021A0000920C00601F00FFB232109208901C00688
:1021B00001F06BFB7D48109010A845710471C77148
:1021C0000146754801F0FFFA7849734801F05DFB5C
:1021D00030200A9008A845730473C47309200AA923
:1021E000C00601F0F0FA20A820964571047108A8F5
:1021F000C773092020A9C00601F0E5FAA8021290D1
:1022000010A845730473C77312A9634801F0DBFA81
:1022100030020C9008A8457506758475C6750920AE
:102220000CA9C00601F0CFFA09203102C00601F066
:102230002AFB05204003149010A845750475C47549
:1022400014A9554801F0BFFA2720C001169010A824
:1022500045770477C77716A94F4801F0B4FA0720ED
:102260004003189018A845710471C7710146504881
:1022700001F0A9FA18A81A9545730473C7731AA92F
:102280004C4801F0A0FA97E0EC0000203300002059
:102290003E000020540000203D00002032000020BD
:1022A0001E00002035000020140000201500002032
:1022B00016000020170000201800002080000020D9
:1022C000840000201F0000202000002021000020AA
:1022D0002200002024000020680000206A00002066
:1022E0006C0000202600002027000020A000002015
:1022F000A4000020AC000020B0000020B4000020AA
:10230000B8000020BC000020C0000020C400002055
:10231000C8000020CC00002023000020A8000020DE
:10232000E4000020E600002034000020EA00002045
:10233000EB000020360000203C0000203A00002086
:102340003B0000203800002039000020370000202A
:1023500025000020490000204A0000206E000020D7
:10236000700000204B0000204C000020E000002006
:102370007200002074000020760000207800002009
:102380007A0000207C0000204D0000204E0000203C
:102390004F00002050000020000400480C010020E5
:1023A00008000240002401400044004002400000B8
:1023B000000800480014004823B0F0BD10B5FFF736
:1023C0008EFDFFF77FFC00F0CBFDFFF75DFE0121E6
:1023D000080701F033FC0121084602F04BFC10BD58
:1023E00070B5414C0125E078022826D1C1010920B1
:1023F000C00601F036FA0021002804D02171A0782F
:1024000000281ED019E02079322802D0401C20710B
:1024100013E02171A078002808D00020334AA07072
:10242000002805D061700420E07003E00120F5E78A
:102430006570E1701170FDF7F1FFE078032802D0BC
:1024400005E00320E070FFF7B9FFFFF710FEE0782A
:10245000042802D000281DD040E02548007800283C
:102460003CD00121002000F004FE22480078012821
:1024700004D0022805D0032806D009E0012102205B
:1024800004E00121032001E00121042000F0F1FD1E
:10249000E57023E000226421012001F033F80022DE
:1024A0006421022001F02EF800226421032001F0B3
:1024B00029F800226421012001F024F8002264217F
:1024C000022001F01FF800226421032001F01AF815
:1024D000FFF799FDFFF772FFFFF7C9FD14210220F6
:1024E00001F00CF970BD0000EC000020320000206B
:1024F000160000202800002000B5D9B0FF22694650
:102500000A7008224A7000228A700322CA70087179
:10251000020A4A71020C8A71000EC8716846FEF701
:1025200091F869464A78FD48921C00F021FB59B0A9
:1025300000BDF8B5FF270546D9373946F84803F0FE
:102540001AF8F84E0020F64C30803946204603F049
:1025500012F8287920706879607021780818308026
:10256000F8BDF8B516460F460024054602F0D0FB2C
:10257000352002F0D6FD284602F0FBFBFF2E12D9D3
:1025800013E0A000395CC0194278120289188278E1
:10259000C0781204000610180918284602F01BFC27
:1025A000641CA4B22D1DB442EBD302F0BAFB20464A
:1025B000F8BDF0B5FF269B36D94DDA4C91B0112904
:1025C00036D0122949D013295DD0212975D022296E
:1025D0006FD023296ED031296DD032296CD03329A8
:1025E00024D1071DA8190F903C21684602F0C5FFB1
:1025F00000206A46397811542388401CC9187F1C72
:1026000021803C28F6DB3C2269460F9802F056FFF9
:102610002088A919020A20310A7748777622C04912
:10262000C148FFF79EFFC1490120087011B0F0BDFD
:10263000061D30216846AD1C02F09FFF0021684650
:10264000327842542388491CD218761C22803029C3
:10265000F6DB01463022284612E0B14E051D323627
:102660003021684602F089FF002168462A784254EA
:102670002388491CD2186D1C22803029F6DB7DE0AE
:1026800002F01CFFD2E7A64E051D62363C216846CB
:1026900002F073FF002168462A7842542388491CBF
:1026A000D2186D1C22803C29F6DB3EE0014651E049
:1026B00003E015E027E03AE04EE0994E051D9E3616
:1026C0003021684602F059FF002168462A784254BA
:1026D0002388491CD2186D1C22803029F6DB4DE07E
:1026E0008F4E051DCE363021684602F046FF002190
:1026F00068462A7842542388491CD2186D1C2280CF
:102700003029F6DB3AE0864E051DFE363C21684650
:1027100002F033FF002168462A7842542388491C7E
:10272000D2186D1C22803C29F6DB3C22BEE7051D39
:102730007F4E3021684602F020FF00216A4628784B
:1027400050542388491CC0186D1C20803029F6DBAA
:1027500030226946304693E7754E051D30363021EC
:10276000684602F00AFF002168462A78425423880E
:10277000491CD2186D1C22803029F6DB302295E7E7
:102780007CB5FF21684601700521417000248470EA
:102790000821664DC17029780171FDF753FF684625
:1027A000427869465D48921C00F0E2F92C707CBDCD
:1027B0000068704730B50023002907D004E09D0071
:1027C00010C85B1C4C519BB29342F8D330BD30B55E
:1027D000FFB07624D0B0A500294658A802F0CDFE5F
:1027E000224658A95048FFF7E5FF2A4658A94C4809
:1027F00002F064FE4A48FEF7ECFAFF2069460870D2
:10280000A2204870002088700920C87044480278CF
:102810000A7142784A7102216A46801C0378541872
:10282000401C491C23719E29F8DB1046FDF70AFF66
:102830006846427869463948921C00F099F97FB0A1
:1028400050B030BD30B5D9B0FF2168460170A0212D
:102850004170002181700A21C17035499E209C3948
:10286000FF236A463B3314180D78A03C401C491CDA
:10287000A5719842F7DB1046FDF7E4FE6846427802
:1028800069462648921C00F073F959B030BD30B546
:10289000D9B0FF2168460170A021417000218170EC
:1028A0000B21C170FF2022493B30FF236A46D733FA
:1028B00014180D78FF3C413C401C491CA5729842FD
:1028C000F6DB1046FDF7BEFE6846427869461348BF
:1028D000921C00F04DF9D8E700787047F7B56946CB
:1028E000C8884E880A790D78801B511B00D5494253
:1028F000002800DA404202F04CFE84B26946488962
:10290000097A801B491B00D54942002800DA404261
:1029100002F03FFE80B220184008FEBD8C0400206B
:102920002B080020E800002000780008F2000020BA
:1029300065090020F0B58FB0FF21684601730F23B1
:102940004373002181734F4F6021C1733E7806703D
:10295000FC1C228842807D7805716188C180BF7827
:102960000772A48844810674160A46748274C5747A
:102970000A0A027541758775210AC17504764248B5
:1029800002A9008803315854010A02A802301954E0
:1029900003A8FDF757FE6846427B03A93B48921CFB
:1029A00000F0E6F86B4607CBFFF798FF0E90012288
:1029B0000EA93748FFF7D5FD0FB0F0BD10B5314A6D
:1029C000D41C01290CD0022911D0032907D1007988
:1029D0009070902000F0EEFAA080FFF7ABFF10BDE2
:1029E00000791070902000F0E5FA208010BD007989
:1029F0005070902000F0DEFA608010BD10B5C178F4
:102A000021292BD00CDC091F0B0002F09AFE101FAD
:102A10002D302A1E1E1E1E331E1E1E1E2224261E82
:102A200033291BD008DC222918D0232916D03129BC
:102A300014D0322909D111E050291ED051291ED0BD
:102A4000522902D10321FFF7B9FF10BDFFF771FD35
:102A500010BD112102E0122100E01321FFF7A9FDB2
:102A600010BDFFF78DFE10BDFFF7B1FE10BDFFF7E3
:102A7000E9FE10BDFFF70BFF10BD0121E3E70221C6
:102A8000E1E70000F3000020080100208C04002092
:102A900000680008064908800028FDD1704710B57D
:102AA00000F01AF810BD10B500B200F02CF810BDFF
:102AB000FC00002010B50420C04301F03DF91E4881
:102AC0001C49006802F05BFD1C4940B27D22087081
:102AD000D2005043488010BD184900228A56184938
:102AE0005043486100228A61086901231843086144
:102AF0000869C30701D0C003FAD50869400840003F
:102B000008618A6170470D4902228A5E0C49504370
:102B1000486100228A610869012318430861086935
:102B2000C30701D0C003FAD5086940084000086116
:102B30008A61704700127A0000000020FE00002029
:102B400000E000E0816000218180C280418001803E
:102B50007047002181804180018070478188C08852
:102B6000814201D301207047002070478088704760
:102B7000F0B5C4888388A41AA34201DD0020F0BD0B
:102B800000231D460DE00488C688B44200D30580AA
:102B900007888668CC5CF4550488641C5B1C048040
:102BA0009BB29342EFD38188891881800120F0BDC8
:102BB00070B58388934200D81A4600231D460DE065
:102BC0004488C688B44200D3458046888468A45DA2
:102BD000CC544488641C5B1C44809BB29342EFD36A
:102BE0008188891A8180104670BD0022C264826487
:102BF0004821426501657047826C8154816C491C93
:102C00008164482901D1002181647047C16C425C14
:102C1000491CC164482901D10021C1641046704794
:102C2000C26C816C881A914200DA4830704770B5E6
:102C3000044600F0A8F8216D814201DB0D1A01E085
:102C40000D1A4835002320650EE0C118482903DB22
:102C500001191846103002E0011918465830095C75
:102C60002046FFF7C9FF5B1C606DAB42EDDB4019EE
:102C70006065482801DB4838606570BDF3B5012107
:102C80004C0493B0204600F0C7FF0121084600F035
:102C9000C3FF0121204600F0D1FF0926F6060122DC
:102CA0000321304600F0FBFD01220221304600F0F6
:102CB000F6FD0C2502206946009508710320487135
:102CC00000248C710120C871304600F07CFDE120A9
:102CD0004002304F12940D900E940F9410940DA951
:102CE0001195384601F055F82B4801F0F7FE2948B8
:102CF0008025283002901020099446020394059400
:102D000006940795049008940A9402A90B960C94D3
:102D1000214801F015FF2048143001F0DFFE1D4866
:102D200005A924300290139803901498049431C19B
:102D300020200A9018480894099402A90B960C9434
:102D4000143001F0FDFE0122C021384601F0D0F917
:102D500011480121143001F01CFF01210E4801F03F
:102D600018FF0121384601F086F815B0F0BD0A4A77
:102D700013685B085B001360D0605160106801212C
:102D8000084310607047044810B5143001F00DFF7F
:102D900010BD000000440040440002401CB5012169
:102DA000480400F039FF03204002009001206946EA
:102DB000087188710022CA7148710920C00600F0AC
:102DC00002FD1CBD1CB50120800200900120694657
:102DD000087188710020C871032048710920C0065D
:102DE00000F0F1FC1CBD1CB5012080020090002009
:102DF0006946087101228A71C8710320487109204F
:102E0000C00600F0E0FC1CBD70B5FFF7DBFF01253C
:102E1000AD020920C00685616C1084610520FFF7B2
:102E20003EFE7A4E35810520FFF739FE348170BDB4
:102E300070B501247548A402048160100925ED06CF
:102E4000A8610520FFF72BFEAC610520FFF727FEE8
:102E500070BD70B5FFF7B6FF01206C4C8002208179
:102E600045100920C00685610520FFF718FE258161
:102E70000520FFF714FE70BD10B5FFF7A3FF012179
:102E800089020920C00681614C1084610520FFF78A
:102E900006FE5E4804810520FFF701FE10BD70B5F7
:102EA0000120002580020924E406A0610520FFF727
:102EB000F6FD01267602A6610520FFF7F0FDFFF77B
:102EC00092FF1420FFF7EBFD208AFFF77BFF052020
:102ED000FFF7E5FD4D4806811920FFF7E0FD284684
:102EE00070BDF8B509270024FF06012605467602C5
:102EF0002806474801D5B86101E0444908816806C1
:102F0000050E0520FFF7CBFDBE610520FFF7C7FDCD
:102F10003E4806810520FFF7C2FD641CE4B2082C80
:102F2000E6D3F8BDF8B50024FFF75DFF01260025C4
:102F300076020927FF06BE610520FFF7B0FD600697
:102F4000398A000E4905CC0F04433048068105201C
:102F5000FFF7A5FD6D1CEDB2082DECD32046F8BDA2
:102F600010B5FFF71BFFFFF74FFF0020FFF7B9FF7A
:102F7000FFF795FF0620FFF7B4FF10BD10B5FFF770
:102F80000DFFFFF741FF9020FFF7ABFFFFF787FF33
:102F90000120FFF7A6FFFFF782FFBE20FFF7A1FF8A
:102FA000FFF77DFF8320FFF79CFFFFF778FFFFF718
:102FB0003FFF10BD10B50446FFF726FF2046FFF780
:102FC00090FFFFF76CFF0020FFF78BFFFFF767FF15
:102FD000FFF72EFFFFF718FF641CE0B2FFF781FF39
:102FE000FFF75DFFFFF79EFF0A4C2070FFF731FFF0
:102FF000FFF798FF6070FFF72CFFFFF719FF2078AD
:1030000061780002401880B210BD00002000004826
:1030100000040000020100201FB50121480400F057
:1030200004FE152168460173002444730121817355
:1030300003A800F055FEE2487D21C900006802F0B7
:103040009EFA01906846048004814480DD4C694604
:10305000204601F001F90121204601F07AFC01220D
:103060001146204601F064FC0121204601F065F97B
:103070001FBD024610B5D448130002F062FB0504E0
:103080000A141A200F00012901D0082104E00821A8
:1030900006E0012903D0042100F0F5FB10BD042156
:1030A00000F0F3FB10BD012901D04021F4E74021DD
:1030B000F6E7012901D01021EEE71021F0E7012900
:1030C00001D02021E8E72021EAE71CB57C20009010
:1030D00001206946087100208871C8710320BA4C2C
:1030E0004871204600F06FFB0821204600F0CBFB22
:1030F0000421204600F0C7FB4021204600F0C3FB1E
:103100001021204600F0BFFB2021204600F0BBFB31
:103110001CBD7CB50124240301206946009408717C
:1031200000208871C871032009254871ED062846E2
:1031300000F049FB2146284600F0A7FB7CBD7CB58A
:103140000324A402012069460094087100208871BC
:10315000C87103209C4D4871284600F034FB21467D
:10316000284600F092FB7CBD1CB50120C0030090F6
:103170000021684601710121C1716946924800F041
:1031800022FB1CBD1CB53020009000216846017157
:103190000121C1710321417169468B4800F013FB85
:1031A0001CBD7CB50124E40301206946009408712C
:1031B00000228A71C871032009254871ED0628464E
:1031C00000F001FB2146284600F05DFB7CBD1CB5EC
:1031D000FF20013000900020694608710920C006D8
:1031E00000F0F1FA1CBD1CB5012040030090002046
:1031F00069460871744800F0E6FA1CBD1CB5012050
:1032000000900020694608710920C00600F0DBFA32
:103210001CBDF0B585B007461421684602F0ADF933
:1032200000253220FFF76FFC00246E469020FFF748
:10323000C1FE61007052401985B20520FFF74CFCB9
:10324000641CE4B20A2CF1D30A21284602F097F953
:10325000388005B0F0BDF0B5012193B0480400F00E
:10326000DBFC0121880400F0D7FC0226032168461C
:10327000069601770024C477092006A9C00600F04D
:10328000A2FA012706A95048069700F09CFA0121EE
:10329000480200F0CAFC0121084600F0BDFC4B4D7D
:1032A000284601F043FF4A4801F018FC474809A9A5
:1032B00040300890474851C1802046000D90C00022
:1032C0000F90202010900C94000211900E9608A9E7
:1032D00012943F4801F034FC01213D4801F059FCB3
:1032E0000221284602F001F80121284601F0F3FFEF
:1032F000684601F03CFF6846009407710420059081
:10330000029469460494284601F01EFF0722022118
:10331000284601F099FF07223146284601F094FF24
:10332000284601F0B4FF0121284601F028FF2A4C6D
:103330002846214601F0E9FF0028F9D0284601F08F
:10334000C2FF13B0F0BD10B523200121400400F0EE
:1033500063FCFFF753FFFFF73AFFFFF744FFFFF768
:1033600011FFFFF71EFFFFF7D4FEFFF7AEFEFFF7DA
:10337000E6FEFFF7F9FEFFF76EFFFFF7FFFD10BD5A
:1033800010B509200121C00600F06BFA10BD012024
:1033900070477047012070477047012070477047A1
:1033A0001CB50121880400F037FC01200022694689
:1033B00000900A71C871044800F005FA1CBD0000B5
:1033C00000000020004401400004004800240140A7
:1033D000080002400401002001000001F0B58DB09A
:1033E000A1480690A1496846818200248483A04FA9
:1033F000C48205A9384600F02FFF05A99D4800F0BA
:103400002BFF05A99C4800F027FF05A99B4800F069
:1034100023FF05A99A4800F01FFFBD156846858463
:10342000C484048544850126868508A9914800F056
:103430008EFF08A9914800F08AFF08A9904800F083
:1034400086FF602168460180468002948481C481A1
:10345000058244826946384600F09FFF08213846BD
:1034600001F0E2F86946844800F097FF082182489D
:1034700001F0DAF869467F4800F08FFF08217D48A7
:1034800001F0D2F869467D4801F029F808217B480F
:1034900001F0DDF869467A4800F07FFF082178489E
:1034A00001F0C2F80121384600F02EFF01217248D8
:1034B00000F02AFF01216F4800F026FF01216F482C
:1034C00000F022FF01216E4800F01EFF0121384666
:1034D00000F033FF0121684800F02FFF012165480B
:1034E00000F02BFF0121654800F027FF012164480F
:1034F00000F023FF0DB0F0BD10B500F059F8FFF754
:103500006DFF10BD70B516460546574A481E88B077
:10351000904239D8642E37D8501C02F030F8401E43
:10352000069052496846818200248483C4820698AA
:103530006421401C704302F022F801466022684674
:1035400002800122428002918481012D0BD0022D44
:103550000CD0032D1AD0042D1BD0052D14D1C481FD
:1035600005A9474C05E005A9414C02E0C481414C46
:1035700005A9204600F070FE6946204600F00DFFC8
:103580000821204601F050F808B070BD05A93A4C5A
:10359000EFE7C481394C05A9204600F05DFE69467D
:1035A000204600F09CFF0821204601F050F8EBE790
:1035B000FEB523200121400400F02EFB0121022052
:1035C00000F03CFB0121880400F02FFB01210802E0
:1035D00000F034FB0121CC02204600F026FB012143
:1035E000080400F022FB022569460D710020887155
:1035F000C871032048710926F606012206213046CB
:1036000000F04DF9402000906946304600F0DBF8AC
:1036100005220721304600F042F9802000906946DB
:10362000304600F0D0F8174F00220121384600F054
:1036300036F969463846009500F0C5F802220B219C
:10364000304600F02CF969463046009400F0BBF893
:1036500001220E21384600F022F9E0000090694670
:10366000384600F0B0F8FEBD7FBB0000E703000065
:10367000000400400048014000200040002C0140B0
:1036800000400140000400482B4D2C4C0026666091
:1036900061680C20414348194279012A09D1C38845
:1036A0008268D21823689A4203D28660C68068581E
:1036B00080476068401C60600F28E9D3E7E730B5B9
:1036C0000C2314461C4D5C43631959711A7128511F
:1036D0000020D880986030BD0E2805D80C225043B9
:1036E000154A01218018417170470E2805D80C2217
:1036F0005043114A002180184171704710B50E28BF
:103700000ED80E4A13680C2250430B4A84187D20B1
:10371000C00048437D21C900A36001F030FFE08074
:1037200010BD06480168491C0160704710B5FFF7DD
:1037300073FC10BD70470000040A00200C0100203B
:103740000748804707480047FEE7FEE7FEE7FEE739
:10375000FEE7FEE704480549054A064B70470000AE
:10376000F1010008C1000008180B0020181100200A
:10377000180D0020180D0020092110B5C906884237
:1037800002D101214C0404E04D49884209D10121B4
:103790000402204600F05BFA0021204600F057FAB0
:1037A00010BD4849884202D101210402F1E746498F
:1037B000884202D101210C05EBE744498842EFD150
:1037C00001218C05E5E7F0B50022012423460D68B0
:1037D00093401D409D422AD10D79012D01D0022D2B
:1037E00012D1876855000326AE40B74387604E79F3
:1037F000AE4085682E43866085889D438580858898
:103800008B7993401D438580066855000323AB40A8
:103810009E4306600E790768AE403E430660C66868
:103820009E43C660CB79AB40C5682B43C360521C36
:10383000102ACBD3F0BD264901600021017102227C
:1038400042718171C1717047012208B512040A43A7
:103850000092C261C1610099C161C169C0690090F3
:1038600008BD0246128A00200A4200D0012070479B
:10387000008A70470246928A00200A4200D0012046
:103880007047808A70478161704701857047002AC0
:1038900001D08161704701857047818270474B0775
:1038A000DB0E9A40C90810B589000818016A0F2478
:1038B0009C40A1430162016A1143016210BD0000F6
:1038C0000004004800080048000C004800140048AC
:1038D000FFFF0000F74801680122114301604168C1
:1038E000F54A114041600168F44A114001600168E5
:1038F000012292049143016041683F2212049143E6
:103900004160C16A09090901C162016BFF22543299
:1039100091430163416B4908490041630021816083
:103920007047E44900228A7088707047034600207F
:10393000E0495A090CD0012A0CD0022A0CD0496B5C
:10394000DA06D20E012393400B4200D001207047CB
:103950000968F5E7096AF3E7496AF1E718B5002055
:103960000524240200901120FFF7E0FF0099491C74
:103970000091A14201D00028F5D01120FFF7D6FF19
:10398000002800D0012018BDCA4A1168F8239943C5
:10399000C000084310607047C6490028086802D07C
:1039A0000122104301E04008400008607047C14A0E
:1039B000516BF8239943C000084350637047BD49D9
:1039C0000028486B02D00122104301E0400840006B
:1039D00048637047B74904220028486B01D09043E0
:1039E00000E0104348637047B2490A6A5208520027
:1039F0000A620A6A04239A430A620A6A02430A6252
:103A00007047AC490A6A18239A430A620A6A024359
:103A10000A627047A7490028486A02D00122104371
:103A200001E0400840004862704710B5A14A536861
:103A30003D242404A3435360536808430343536065
:103A400010BD01229B4912060028086801D01043CE
:103A500000E0904308607047964AD16A090909015D
:103A60000143D162704701229249D20400280868BC
:103A700001D0104300E09043086070478D49C87141
:103A800070478C4A5168890889000143516070472A
:103A9000884840680C2108407047864A5168F023E6
:103AA0009943014351607047824A516807231B02C2
:103AB00099430143516070477E494A6801239B0343
:103AC0009A434A604A6883B21A434A600A6B8B156C
:103AD0009A430A630A6B000C02430A6370477549F4
:103AE0000A6B40239A430A630A6B02430A637047D6
:103AF00070490A6B10239A430A630A6B02430A63F4
:103B000070476C490A6B920892000A630A6B024381
:103B10000A637047F8B5674D044668680C21684E23
:103B2000084003D0042801D0082801D0266012E004
:103B3000696868680122890212040F0F1040BF1CD7
:103B400000281CD0E86A0107090F3046491C01F023
:103B500016FD7843206068685A4B0006000F1A5C17
:103B600020680146D14061606A685205520F9A5C34
:103B7000D140A1602A6BD20505D4534A09E05348CD
:103B800047432760E7E76A68520401D44A0800E027
:103B90008A08E2602A6B53064D4A03D44C4B123319
:103BA000236100E022612B6BDB0601D4666100E03B
:103BB00060612B6B9B070FD0296B8907890F012947
:103BC0000CD0286B8007800F022809D0286BC043D7
:103BD000800700D1A661F8BDA161F8BDA061F8BD64
:103BE000A261F8BD33490A6A02430A62704731494B
:103BF0000028374A086A01D0104300E09043086269
:103C0000704701222B4912040028086A01D0104392
:103C100000E0904308627047264A0029516901D0AC
:103C2000014300E0814351617047224A00299169B4
:103C300001D0014300E08143916170471D4A002992
:103C4000D16901D0014300E08143D1617047194A35
:103C50000029916A01D0014300E0814391627047DD
:103C6000144A0029D16801D0014300E08143D160AA
:103C70007047104A0029116901D0014300E08143D7
:103C8000116170470B4A0029517A01D0014300E0CD
:103C90008143517270470748416A0122120611435D
:103CA00041627047034A0146926800200A4200D0F0
:103CB00001207047001002400CB8FFF8FFFFF6FE2D
:103CC00000127A0014010020809FD50000093D00F9
:103CD0000080000001498872EBE7000000100240FC
:103CE00030B5837801210278002B15D09408174B4A
:103CF000A400E41823689207D50EFF22AA4093433C
:103D000042789207120EAA401A4322600078C00639
:103D1000C00E81400E4804E0D006C00E81400C4821
:103D20008030016030BD0B4A0029116901D0014388
:103D300000E08143116170470422074904280869A3
:103D400002D09043086170471043FBE700E400E0B5
:103D500000E100E000ED00E000E000E0F74910B510
:103D6000884209D101218C032046FFF779FF002109
:103D70002046FFF775FF10BDF1498842FBD10121B4
:103D80004C042046FFF775FF00212046FFF771FF26
:103D900010BD70B50446006888B00D46400840006C
:103DA00020606168032000038143A86808436060C5
:103DB0002168E448EA680140686810432A690A43B8
:103DC00010432060A0680321090288436969014308
:103DD000A1606846FFF79EFED848844201D106984C
:103DE00000E0029821680904296801D5490000E033
:103DF00089001922504301F0C2FB0546642101F0FD
:103E0000BEFB06013009642148432168281A0904D1
:103E100007D5C0006421323001F0B1FB4007400FEC
:103E200006E000016421323001F0A9FB0007000F19
:103E30003043A08108B070BD4B21C9010160002151
:103E4000416081600C22C16002614161704710B520
:103E500042680F231B029A4318C923430C68496820
:103E60000C4323431343436010BD002101604160B4
:103E70008160C16070470029016802D001221143AE
:103E800001E04908490001607047002A026801D03A
:103E90000A4300E08A43026070470122D2030029EE
:103EA000016801D0114300E0914301607047012295
:103EB000D2020029816801D0114300E09143816062
:103EC00070470122D2040029416801D0114300E06B
:103ED000914341607047012292040029416801D05A
:103EE000114300E0914341607047002A426801D0CD
:103EF0000A4300E08A43426070470122D20300294E
:103F0000416801D0114300E09143416070470122B4
:103F1000D2050029416801D0114300E0914341607E
:103F200070474269120E1206426142690A434261B9
:103F30007047028A120A12020282028A0A4302822D
:103F4000704702220029016801D0114300E091432B
:103F500001607047826803231B059A438260826870
:103F60000A4382607047012212050029416801D08E
:103F7000114300E0914341607047426803235B05B1
:103F80009A43426042680A4342607047C169012215
:103F9000D2039143C1617047C905C90D01857047BE
:103FA000808CC005C00D704742681202120A426040
:103FB000426809060A434260704701225203002901
:103FC000016801D0114300E091430160704702682D
:103FD0000123DB029A43026002680A4302607047D1
:103FE000426810239A43426042680A434260704725
:103FF000426820239A43426042680A434260704705
:10400000012292030029416801D0114300E091434D
:104010004160704708220029816801D0114300E007
:10402000914381607047028AD2B20282028A0902F9
:104030000A430282704720220029816801D011437F
:1040400000E091438160704710220029816801D00F
:10405000114300E0914381607047826807235B044D
:104060009A438260826849040A43826070474269C9
:104070001202120A4261426909060A43426170470C
:10408000826804239A43826082680A438260704790
:1040900002220029816801D0114300E09143816030
:1040A0007047012292030029816801D0114300E08A
:1040B00091438160704782680123DB039A438260E9
:1040C00082680A438260704702681F235B059A4337
:1040D0000260026849050A430260704702681F23B4
:1040E0001B049A430260026809040A430260704795
:1040F000002A826801D00A4300E08A438260704748
:10410000826801235B039A43826082680A4382606B
:10411000704710B50B041C0E01238B40022C02D0FB
:10412000032C02D002E0001D00E008300168002AE4
:1041300001D0194300E09943016010BD00380140EF
:1041400000440040F3E9FFFF002A028B01D00A433C
:1041500000E08A4302837047826801231B039A436D
:10416000826082680A43826070470246D2690020FA
:104170000A4200D0012070470162704730B50A043E
:10418000130E0122144600258C40012B0ED0022B69
:104190000ED08368090C2340C0698A401040002B70
:1041A00002D0002800D00125284630BD0368F1E781
:1041B0004368EFE70A0C012191400162704700005B
:1041C000F84910B5884202D10121C41430E0012120
:1041D0008907884206D101210846FFF74AFD0021E0
:1041E000012008E0F049884208D101210220FFF7B0
:1041F00040FD00210220FFF73CFD10BDEB49884245
:1042000006D101211020FFF734FD00211020F2E734
:10421000E749884207D1841501212046FFF729FD8F
:1042200000212046E7E7E349884209D101210C0437
:104230002046FFF715FD00212046FFF711FD10BDB8
:10424000DD49884202D101214C04F1E7DB49884273
:10425000F5D101218C04EBE710B50288D14B9842CF
:1042600006D00124A407A04202D0CF4CA04203D123
:104270007024A2434C882243CC4CA04203D0D04CA3
:1042800022400C89224302804A68C2620A88028561
:10429000984208D0C74A904205D0C74A904202D0FF
:1042A000C64A904201D1897A01860121818210BDDE
:1042B0000021C94341600021018001814180817258
:1042C0007047018582827047028870239A430A43AF
:1042D0000280704741627047C1627047406A704710
:1042E000008D704702220029018801D0114300E0AF
:1042F00091430180704704220029018801D01143B5
:1043000000E091430180704780220029018801D09C
:10431000114300E0914301807047028808239A43CB
:10432000028002880A43028070470288A44B1A4028
:10433000028002880A43028070470029018802D067
:104340000122114301E0490849000180704710B57E
:104350000A884B88CC881A438B8823431A430B89DD
:104360001A434B8989891A430A434030828010BD21
:104370000021018041808180C18001814181818152
:10438000704740300029818803D00122D2031143B5
:1043900001E04904490C8180704730B5028C520815
:1043A00052000284038C8288048B7025AC43A408DD
:1043B0000D88A40025430224A3438C891C434B8809
:1043C0002343784CA04208D07A4CA04205D07A4CC6
:1043D000A04202D0794CA0420DD10824A343CC893D
:1043E0001C4304239C438B882343754C22400C8A36
:1043F00014434A8A22438280058389684163038487
:1044000030BD70B5028C10239A430284048C8288DC
:10441000038B6C4D2B400D782D062D0C1D43202356
:104420009C438B891B051E0C4B8826431B051B0CCC
:104430005C4C3343A04215D18024A343CC8924058E
:10444000240C1C4340239C438B881B051B0C2343DB
:104450005D4C22400C8AA404240C14434A8A920422
:10446000120C22438280058389688163038470BDB6
:1044700030B5028C554B1A400284038C8288848BA1
:104480007025AC43A4080D88A4002543504C23405C
:104490000C7B2406240C1C438B781B061B0C23432B
:1044A000404CA04215D14B4C23408C7B2406240C5D
:1044B0001C43494B1C400B791B061B0C2343474CE8
:1044C00022400C8A2405240C14434A8A1205120C3B
:1044D0002243828085838968C163038430BD30B5FF
:1044E000028C3F4B1A400284048C8388828B354DAA
:1044F0002A400D782D062D0C15433A4A14400A7BAC
:104500001207120C22438C782407240C1443254AEA
:10451000904205D1344A13400A8A9205120C134383
:104520008380858389680164048430BD0021018013
:104530004180818081608181C18101824182704797
:1045400030B5034618330124058C8C40A5430584FF
:10455000002910D008290ED0091F0804400CC018EB
:10456000016807231B039943016001681206120CBE
:104570001143016030BD4808C01801687023994399
:1045800001600168F4E74163704781637047C1636C
:10459000704701647047028B70239A430A43028379
:1045A00070470000002C0140000400400010004053
:1045B000002000400040014000440140004801400C
:1045C000FFFC0000FF8C0000FFF30000FFFE000076
:1045D000FFFD0000FFF70000FFFB0000FFCF000021
:1045E000FFEF0000FFDF0000FFBF0000028BF64B73
:1045F00009021A4011430183D2E7828B70239A4348
:104600000A438283CCE7828BEF4B09021A401143A5
:104610008183C5E70029818802D00122114301E08E
:10462000490849008180BBE7028B08239A430A436B
:104630000283B5E7028BE54B09021A40114301835F
:10464000AEE7828B08239A430A438283A8E7828BD2
:10465000DE4B09021A4011438183A1E7028B042338
:104660009A430A4302839BE7028BD94B09021A4003
:104670001143018394E7828B04239A430A43828384
:104680008EE7828BD24B09021A401143818387E760
:10469000028B80239A430A43028381E7028B5204F0
:1046A000520C0902114301837AE7828B80239A43DB
:1046B0000A43828374E7828B5204520C090211432D
:1046C00081836DE7028C02239A430A43028467E7E1
:1046D000028C08239A430A43028461E7028C202358
:1046E0009A430901114301845AE7028C80239A43BB
:1046F00009011143018453E7028CB64B09021A40A9
:10470000114301844CE7028CB04B09021A4011435B
:10471000018445E7028CB04B09031A401143018420
:104720003EE7028908239A43028102890A430281F3
:1047300036E710B50123048C8B409C430484038C22
:104740008A401343038410BD10B50423048C8B40AE
:104750009C430484038C8A401343038410BD0422C9
:104760000029818801D0114300E09143818017E73F
:10477000828B9A4B1A408283828B09020A4382837E
:104780000EE7828B0C239A438283828B0A438283B7
:1047900006E7028B914B1A400283028B09020A43FF
:1047A0000283FDE6F0B5048C1026B4430484058B27
:1047B000048C8B4F1B0309013D402B4312021A430B
:1047C000A0239C430C43344302830484F0BD028B3A
:1047D0000C239A430283028B0A430283E0E670B5FE
:1047E000048C640864000484058B048C1B0113434F
:1047F000F3260A22B54394432B430C4301210C4377
:104800000383048470BDF8B5044608884E888A88FE
:104810000B890D4600281DD0042824D00828208CA0
:104820002AD0704908402084A08B278C31036C4E1D
:10483000120230400243180310436B4AA083174012
:104840000F43012109030F432784E9882046FFF71E
:104850008FFFF8BD31462046FFF7C1FFE9882046AB
:10486000FFF7B5FFF8BD31462046FFF79BFFE9880B
:104870002046FFF78EFFF8BD5C4908402084A18BDD
:10488000208C3702F3261B01B14313430B435849D5
:10489000A3830840FF213843013108432084E9887D
:1048A0002046FFF76EFFF8BD002101804180012204
:1048B0008280C180018173E6F8B50C4649880026E4
:1048C00001250746002900D10226A288012A00D12D
:1048D0000225208823890028384610D0FFF762FF80
:1048E000E1883846FFF755FF23892A463146384686
:1048F000FFF775FFE1883846FFF769FFF8BDFFF75E
:104900006EFFE1883846FFF762FF23892A46314669
:104910003846FFF747FFE1883846FFF73AFFF8BD12
:10492000406B3DE6806B3BE6C06B39E6006C37E6DA
:10493000002A828901D00A4300E08A4382812FE65F
:1049400081822DE60246128A00200A4200D0012010
:1049500026E6C943018223E60246138A0020928993
:104960000B400A40002B02D0002A00D0012017E69D
:10497000C943018214E611434030018110E6002A48
:10498000828901D00A4300E08A43828108E6082236
:104990000029818801D0114300E091438180FFE527
:1049A0000189C908C9000181FAE5028970239A4387
:1049B0000A430281F4E510B50446FFF7F6FF2089AB
:1049C00007210843208110BDFF8F0000FFF7000082
:1049D000FFFB0000FFFD0000FFDF0000FFF3000011
:1049E000FF0C0000FFEF0000FF5F0000FFFE000073
:1049F000FFF5000070B516460D46044660290CD040
:104A000001223146FFF7EBFE29462046FFF7CDFF96
:104A1000208907210843208170BD01223146FFF71C
:104A2000C1FEF1E710B504891B021343E4B20B4346
:104A30002343038110BD10B50446FFF7F3FF20891F
:104A4000C108C9000720014370208143014321812F
:104A500010BD10B50446FFF7E5FF20890121890349
:104A60000843208110BD828870239A438280828807
:104A70000A43828094E50289D208D2000281028929
:104A80000A4302818CE5028980239A4302810289CC
:104A90000A43028184E570B50689048B058CF6080B
:104AA000F6000E430C4906810C40FF2102310C43F5
:104AB000AA218D431901114329430483018470BD48
:104AC00080220029818801D0114300E09143818038
:104AD00066E54030018263E5FCFC00000168454A60
:104AE000114001600021016041608160C160424964
:104AF000414A0839904202D148680F2205E03E4AF7
:104B00001432904204D14868F02210434860704744
:104B1000394A2832904203D148680F221202F4E742
:104B2000354A3C32904203D148680F221203ECE729
:104B3000314A50329042EAD148680F221204E4E729
:104B400030B503682D4A0C6A13408A684D692243C8
:104B50000C692C4322438C692243CC6922434C6A62
:104B600022438C6A22431A430260CA6842600A6880
:104B700082604968C16030BD002101604160816090
:104B8000C160016141618161C16101624162816213
:104B900070470029016802D00122114301E0154A43
:104BA00011400160704741607047406880B27047B3
:104BB000002A026801D00A4300E08A43026070477D
:104BC00001460D4A0020083A12680A4200D001202E
:104BD000704709490839486070470146064A002075
:104BE000083A12680A4200D0012070470249083989
:104BF00048607047FEFF0000080002400F80FFFF82
:104C000010B501210C072046FFF733F8002120469C
:104C1000FFF72FF810BD30498A150028086801D029
:104C2000104300E09043086070472B4A1168E0236E
:104C300099430143116070472749102200280868F2
:104C400001D0104300E0904308607047224A0029D9
:104C5000516801D0014300E08143516070471F4912
:104C60000A6904239A430A61012801D020BF7047D2
:104C700030BF7047184B1A689208920002431A60BE
:104C800016480369042213430361012904D020BF9D
:104C9000016991430161704730BFF9E70E4802682E
:104CA00004210A430260026802231A4302600B488F
:104CB00002690A43026130BF7047074A01465268E1
:104CC00000200A4200D00120704703490A68800092
:104CD00002430A60704700000070004000ED00E0F1
:104CE000FE4A116849084900014311607047FB49B9
:104CF00010220028086801D0104300E090430860AB
:104D00007047F64900200968890600D501207047E0
:104D1000F2480169090603D5F1494160F149416052
:104D20007047EE4801698022114301617047EB49E9
:104D30000420CA68D20701D001207047CA68D20691
:104D400001D502207047C9684907FBD50320704789
:104D500000B50346FFF7EBFF02E0FFF7E8FF5B1E3D
:104D6000012803D0002B00D1052000BD002BF4D179
:104D7000FAE7F0B50B2706463F043846FFF7E8FF91
:104D800004280FD1D54C2069022528432061666193
:104D900020694021084320613846FFF7D9FF216987
:104DA000A9432161F0BD70B50B252D042846FFF7FE
:104DB000CFFF04280ED1C94C20690426304320615E
:104DC00020694021084320612846FFF7C1FF21697F
:104DD000B143216170BDF8B5064600200B273F04A2
:104DE00000900D463846FFF7B3FF042815D1BB4CA1
:104DF000206901210843206135803846FFF7A8FF6C
:104E0000042806D1B61C280C009630803846FFF7DF
:104E10009FFF2169490849002161F8BDF0B50B27C2
:104E200006463F040D463846FFF792FF04280CD192
:104E3000AA4C206901210843206135803846FFF7DC
:104E400087FF2169490849002161F0BDA348016934
:104E5000890503D4A2498160A249816070479F48B7
:104E6000016942159143016170479C480169012223
:104E7000520311430161704798490020C9694907ED
:104E8000890F00D001207047F0B5AA25FFF7F4FF85
:104E9000002800D000250B273F043846FFF758FFB5
:104EA000042813D18D4C20692026304320612069CD
:104EB0004021084320613846FFF74AFF10210428AB
:104EC00005D0052802D022698A432261F0BD2069FD
:104ED000B043206120690E4630432061824805803E
:104EE0003846FFF735FF0528F0D02169B14321612D
:104EF000F0BDF0B5C043C6B20004050E0B2000049F
:104F0000FFF726FF04281BD1744C2169102211439E
:104F10002161754FFF2E06D03E810B200004FFF764
:104F200017FF042806D1FF2D06D07D810B20000439
:104F3000FFF70EFF052803D0226910218A43226162
:104F4000F0BDF0B50B26074636043046FFF700FFEC
:104F500004281ED1614C2069202528432061206946
:104F60004021084320613046FFF7F2FE04280BD1B0
:104F70002069A843206120691025284320615A48F0
:104F800007803046FFF7E4FE052802D02169A943D7
:104F90002161F0BDF0B505460B2094460F46000494
:104FA000FFF7D6FE042814D14C4C2069102630435C
:104FB00020613D4360460543F82005434A4845804B
:104FC0000B200004FFF7C4FE052802D02169B1437D
:104FD0002161F0BDF0B50B2705463F043846FFF7C9
:104FE000B7FE042810D13D4C2069102630432061C3
:104FF000EF2005433C4845803846FFF7A9FE0528C9
:1050000002D02169B1432161F0BDF0B50B270546FF
:105010003F043846FFF79CFE042810D12F4C20692E
:10502000102630432061DF2005432F484580384655
:10503000FFF78EFE052802D02169B1432161F0BD42
:10504000F0B50B2705463F043846FFF781FE0428DC
:1050500010D1224C2069102630432061BF20054327
:10506000214845803846FFF773FE052802D02169A4
:10507000B1432161F0BDF0B50B2705463F0438462A
:10508000FFF766FE042810D1144C20691026304327
:10509000206188200543144845803846FFF758FEB4
:1050A000052802D02169B1432161F0BDF0B5074662
:1050B0000B200E460004FFF74BFE042817D1074CC7
:1050C00020691025284320613E800B200004FFF753
:1050D0003FFE05280BD02169A94307E000200240CC
:1050E00023016745AB89EFCD00F8FF1F2161F0BDBB
:1050F0000D48C0690004000E70470B48006A7047F5
:10510000094A0029116901D0014300E0814311617E
:105110007047054A0146D26800200A4200D00120AB
:1051200070470149C860704700200240854910B5AA
:10513000884208D1441501212046FEF791FD002147
:105140002046FEF78DFD10BD30B5C3687E4A8C68E1
:1051500013400A680D792243CC686D032C43224327
:105160000C69496922430A431A43C26030BD0021D9
:10517000016001718160C160016141617047002976
:10518000816801D0012200E0022211438160704752
:10519000002A026901D00A4300E08A430261704795
:1051A0000122D2030029C16801D0114300E09143DC
:1051B000C1607047012292030029C16801D01143E8
:1051C00000E09143C16070470122D2050029C16807
:1051D00001D0114300E09143C160704709041143BD
:1051E00001627047C2681F239B069A430A43C2604C
:1051F0007047012292050029C16801D0114300E0E7
:105200009143C160704701225049D2050028886847
:1052100001D0104300E090438860704701224B4961
:1052200092050028886801D0104300E09043886010
:1052300070470122454912060028886801D01043B2
:1052400000E0904388607047836A0B438362426149
:105250007047012252030029C16801D0114300E0C8
:105260009143C1607047012212040029C16801D036
:10527000114300E09143C1607047012212030029ED
:10528000C16801D0114300E09143C160704782685A
:1052900000210123DB071A4382600F231B0382686E
:1052A000491CD20FD207994201D0002AF7D1816858
:1052B000002901DB006C70470020704781681022D4
:1052C00011438160704781680422114381607047F7
:1052D000006C80B270470029C16802D001221143DE
:1052E00001E049084900C1607047C26802239A433F
:1052F000C260C2680A43C2607047002A426801D097
:105300000A4300E08A434260704702460020CB0116
:1053100004D5926801231B069A4300E012680A42F2
:1053200000D001207047016070470246536800209A
:1053300012680B400A4202D0002B00D001207047B7
:10534000016070470024014003D2FFFF00270140A5
:10535000324831490160002141608160C1603049BB
:105360004161704710B583792C490268002B26D023
:105370000B6893430B604A6803689A434A6002795A
:10538000521813680468234313608A6803689A43B9
:105390008A60CA6803689A43CA604279102A05D0B5
:1053A00051180A68006802430A6010BD8A680368E1
:1053B0001A438A60CA6800680243CA6010BD007957
:1053C000401801689143016010BD00210160017126
:1053D0000C2242718171704710490A6902430A61C7
:1053E00070470E4A0146526900200A4200D001204F
:1053F00070470A4948617047084A0146136800200F
:1054000052690B400A4202D0002B00D001207047A5
:1054100002494861704700000000940F00040140F9
:10542000FFFF6B00244801688907890F0160002194
:105430008160C160016141618169821511438161AF
:1054400070471D4A1168890889000143116070473F
:10545000194A0029116801D0014300E0814311601D
:105460007047154A0029116801D0014300E08143CB
:10547000116070478A07130F10B50F229A408C08ED
:105480000D49A40061188C6894438C608A68984028
:1054900002438A6010BD08498A6902438A617047E5
:1054A000054900208969C90500D5012070470249D6
:1054B0008A6902438A61704700000140F8B5042AF6
:1054C0002CD3830712D00B78491C0370401C521E4A
:1054D00083070BD00B78491C0370401C521E8307B6
:1054E00004D00B78491C0370401C521E8B079B0F85
:1054F00005D0C91ADF002023DE1B08C90AE0FAF72D
:1055000031FEF8BD1D4608C9FD401C46B4402C4381
:1055100010C0121F042AF5D2F308C91A521EF0D483
:105520000B78491C0370401C521EEAD40B78491CAE
:105530000370401C012AE4D409780170F8BD01E031
:1055400004C0091F0429FBD28B0701D50280801CEF
:10555000C90700D00270704700290BD0C30702D0E2
:105560000270401C491E022904D3830702D5028021
:10557000801C891EE3E70022EEE70022DFE700221D
:1055800003098B422CD3030A8B4211D300239C4680
:105590004EE003460B433CD4002243088B4231D3F8
:1055A00003098B421CD3030A8B4201D394463FE08C
:1055B000C3098B4201D3CB01C01A524183098B42EC
:1055C00001D38B01C01A524143098B4201D34B01D5
:1055D000C01A524103098B4201D30B01C01A524138
:1055E000C3088B4201D3CB00C01A524183088B42BF
:1055F00001D38B00C01A524143088B4201D34B00A8
:10560000C01A5241411A00D2014652411046704719
:105610005DE0CA0F00D04942031000D3404253401E
:1056200000229C4603098B422DD3030A8B4212D3DE
:10563000FC22890112BA030A8B420CD38901921110
:105640008B4208D3890192118B4204D389013AD04D
:10565000921100E08909C3098B4201D3CB01C01A22
:10566000524183098B4201D38B01C01A5241430935
:105670008B4201D34B01C01A524103098B4201D323
:105680000B01C01A5241C3088B4201D3CB00C01A90
:10569000524183088B4201D38B00C01A5241D9D2A8
:1056A00043088B4201D34B00C01A5241411A00D229
:1056B0000146634652415B10104601D34042002B25
:1056C00000D54942704763465B1000D3404201B5A4
:1056D0000020C046C04602BD7047704770477546FF
:1056E00000F024F8AE46050069465346C008C000E5
:1056F000854618B020B5FEF72DF860BC0027490894
:10570000B6460026C0C5C0C5C0C5C0C5C0C5C0C559
:10571000C0C5C0C5403D49008D46704710B5044620
:10572000C046C0462046FAF716FD10BD0048704737
:10573000B80A002001491820ABBEFEE7260002008F
:10574000704730B47446641E2578641CAB4200D2A6
:105750001D46635D5B00E31830BC1847C8021101A9
:1057600064320601010412016432060101041301CE
:105770006432060101041401643C060101041501B0
:10578000643C060101041601643C06010104210188
:10579000643206010104220164320601010423017E
:1057A0006432060101042401643C06010104250160
:1057B000643C060101042601643C06010104312811
:1057C0000164280A0A010002323C01642D0A0A0120
:1057D000000233500164320A0A0100023464016499
:1057E000370A0A010002358C01643C0A0A010002F2
:1057F00036A00164410A0A010002110164460A014F
:105800000102120164460A010102130164460A0101
:105810000102140164500A010102150164500A01D9
:105820000102160164500A010102210164460A01C5
:105830000102220164460A010102230164460A01B1
:105840000102240164500A010102250164500A0189
:105850000102260164500A010102313201642D0A5D
:105860000501010232410164320A0501010233558A
:105870000164370A05010102346901643C0A05012B
:10588000010235910164410A0501010236A5016456
:10589000410A05010102110164500A0101031201CC
:1058A00064500A010103130164500A010103140149
:1058B000645A0A0101031501645A0A010103160121
:1058C000645A0A010103210164500A010103220103
:1058D00064500A010103230164500A0101032401F9
:1058E000645A0A0101032501645A0A0101032601D1
:1058F000645A0A01010331320164500A04010103B0
:1059000032440164500A0401010333580164500A0F
:1059100004010103346E01645A0A0401010335963F
:1059200001645A0A0401010336AA01645A0A0401F7
:10593000010336B75459000800000020240100007C
:1059400004010008785A000824010020F40F000028
:1059500020010008006CDC020000000000000000D4
:10596000010203040607080900000000000101010C
:10597000010101010101010101000100010000001C
:105980000000000000000000000000000000000017
:105990000001000000000000000100000000000005
:1059A0000000000000000000000005000500F401F8
:1059B000F40105000500F401F401000000000000FE
:1059C00000000000000000000000000000000000D7
:1059D00000000000000000000000000000000000C7
:1059E00000000000000000000000000000000000B7
:1059F00000000000000000000000000000000000A7
:105A00000000000000000000000000000000000096
:105A10000000000000000000000000000000000086
:105A20000000000000000000000000000000000076
:105A30000000000000000000000000000000000066
:105A40000301000100000000000000000000000051
:105A50000000000000000000000000000000000046
:105A6000000000000000000000000000010203042C
:085A7000010203040607080906
:040000050800374177
:00000001FF
